{
  "contractName": "SolnSquareVerifier",
  "abi": [
    {
      "constant": false,
      "inputs": [
        {
          "name": "status",
          "type": "bool"
        }
      ],
      "name": "setter",
      "outputs": [],
      "payable": false,
      "stateMutability": "nonpayable",
      "type": "function"
    },
    {
      "constant": true,
      "inputs": [
        {
          "name": "interfaceId",
          "type": "bytes4"
        }
      ],
      "name": "supportsInterface",
      "outputs": [
        {
          "name": "",
          "type": "bool"
        }
      ],
      "payable": false,
      "stateMutability": "view",
      "type": "function"
    },
    {
      "constant": true,
      "inputs": [],
      "name": "name",
      "outputs": [
        {
          "name": "",
          "type": "string"
        }
      ],
      "payable": false,
      "stateMutability": "view",
      "type": "function"
    },
    {
      "constant": true,
      "inputs": [
        {
          "name": "tokenId",
          "type": "uint256"
        }
      ],
      "name": "getApproved",
      "outputs": [
        {
          "name": "",
          "type": "address"
        }
      ],
      "payable": false,
      "stateMutability": "view",
      "type": "function"
    },
    {
      "constant": false,
      "inputs": [
        {
          "name": "to",
          "type": "address"
        },
        {
          "name": "tokenId",
          "type": "uint256"
        }
      ],
      "name": "approve",
      "outputs": [],
      "payable": false,
      "stateMutability": "nonpayable",
      "type": "function"
    },
    {
      "constant": true,
      "inputs": [],
      "name": "totalSupply",
      "outputs": [
        {
          "name": "",
          "type": "uint256"
        }
      ],
      "payable": false,
      "stateMutability": "view",
      "type": "function"
    },
    {
      "constant": false,
      "inputs": [
        {
          "name": "from",
          "type": "address"
        },
        {
          "name": "to",
          "type": "address"
        },
        {
          "name": "tokenId",
          "type": "uint256"
        }
      ],
      "name": "transferFrom",
      "outputs": [],
      "payable": false,
      "stateMutability": "nonpayable",
      "type": "function"
    },
    {
      "constant": false,
      "inputs": [
        {
          "name": "_myid",
          "type": "bytes32"
        },
        {
          "name": "_result",
          "type": "string"
        }
      ],
      "name": "__callback",
      "outputs": [],
      "payable": false,
      "stateMutability": "nonpayable",
      "type": "function"
    },
    {
      "constant": true,
      "inputs": [
        {
          "name": "owner",
          "type": "address"
        },
        {
          "name": "index",
          "type": "uint256"
        }
      ],
      "name": "tokenOfOwnerByIndex",
      "outputs": [
        {
          "name": "",
          "type": "uint256"
        }
      ],
      "payable": false,
      "stateMutability": "view",
      "type": "function"
    },
    {
      "constant": false,
      "inputs": [
        {
          "name": "_myid",
          "type": "bytes32"
        },
        {
          "name": "_result",
          "type": "string"
        },
        {
          "name": "_proof",
          "type": "bytes"
        }
      ],
      "name": "__callback",
      "outputs": [],
      "payable": false,
      "stateMutability": "nonpayable",
      "type": "function"
    },
    {
      "constant": false,
      "inputs": [
        {
          "name": "to",
          "type": "address"
        },
        {
          "name": "tokenId",
          "type": "uint256"
        }
      ],
      "name": "mint",
      "outputs": [
        {
          "name": "result",
          "type": "bool"
        }
      ],
      "payable": false,
      "stateMutability": "nonpayable",
      "type": "function"
    },
    {
      "constant": false,
      "inputs": [
        {
          "name": "from",
          "type": "address"
        },
        {
          "name": "to",
          "type": "address"
        },
        {
          "name": "tokenId",
          "type": "uint256"
        }
      ],
      "name": "safeTransferFrom",
      "outputs": [],
      "payable": false,
      "stateMutability": "nonpayable",
      "type": "function"
    },
    {
      "constant": true,
      "inputs": [
        {
          "name": "index",
          "type": "uint256"
        }
      ],
      "name": "tokenByIndex",
      "outputs": [
        {
          "name": "",
          "type": "uint256"
        }
      ],
      "payable": false,
      "stateMutability": "view",
      "type": "function"
    },
    {
      "constant": true,
      "inputs": [
        {
          "name": "tokenId",
          "type": "uint256"
        }
      ],
      "name": "ownerOf",
      "outputs": [
        {
          "name": "",
          "type": "address"
        }
      ],
      "payable": false,
      "stateMutability": "view",
      "type": "function"
    },
    {
      "constant": true,
      "inputs": [
        {
          "name": "owner",
          "type": "address"
        }
      ],
      "name": "balanceOf",
      "outputs": [
        {
          "name": "",
          "type": "uint256"
        }
      ],
      "payable": false,
      "stateMutability": "view",
      "type": "function"
    },
    {
      "constant": true,
      "inputs": [],
      "name": "symbol",
      "outputs": [
        {
          "name": "",
          "type": "string"
        }
      ],
      "payable": false,
      "stateMutability": "view",
      "type": "function"
    },
    {
      "constant": false,
      "inputs": [
        {
          "name": "to",
          "type": "address"
        },
        {
          "name": "approved",
          "type": "bool"
        }
      ],
      "name": "setApprovalForAll",
      "outputs": [],
      "payable": false,
      "stateMutability": "nonpayable",
      "type": "function"
    },
    {
      "constant": true,
      "inputs": [],
      "name": "_owner",
      "outputs": [
        {
          "name": "",
          "type": "address"
        }
      ],
      "payable": false,
      "stateMutability": "view",
      "type": "function"
    },
    {
      "constant": false,
      "inputs": [
        {
          "name": "from",
          "type": "address"
        },
        {
          "name": "to",
          "type": "address"
        },
        {
          "name": "tokenId",
          "type": "uint256"
        },
        {
          "name": "_data",
          "type": "bytes"
        }
      ],
      "name": "safeTransferFrom",
      "outputs": [],
      "payable": false,
      "stateMutability": "nonpayable",
      "type": "function"
    },
    {
      "constant": true,
      "inputs": [
        {
          "name": "tokenId",
          "type": "uint256"
        }
      ],
      "name": "tokenURI",
      "outputs": [
        {
          "name": "",
          "type": "string"
        }
      ],
      "payable": false,
      "stateMutability": "view",
      "type": "function"
    },
    {
      "constant": true,
      "inputs": [],
      "name": "baseTokenURI",
      "outputs": [
        {
          "name": "",
          "type": "string"
        }
      ],
      "payable": false,
      "stateMutability": "view",
      "type": "function"
    },
    {
      "constant": true,
      "inputs": [
        {
          "name": "owner",
          "type": "address"
        },
        {
          "name": "operator",
          "type": "address"
        }
      ],
      "name": "isApprovedForAll",
      "outputs": [
        {
          "name": "",
          "type": "bool"
        }
      ],
      "payable": false,
      "stateMutability": "view",
      "type": "function"
    },
    {
      "constant": false,
      "inputs": [
        {
          "name": "newOwner",
          "type": "address"
        }
      ],
      "name": "transferOwnership",
      "outputs": [],
      "payable": false,
      "stateMutability": "nonpayable",
      "type": "function"
    },
    {
      "inputs": [
        {
          "name": "verifierAddress",
          "type": "address"
        }
      ],
      "payable": false,
      "stateMutability": "nonpayable",
      "type": "constructor"
    },
    {
      "anonymous": false,
      "inputs": [
        {
          "indexed": false,
          "name": "index",
          "type": "uint256"
        },
        {
          "indexed": false,
          "name": "holder",
          "type": "address"
        }
      ],
      "name": "SolutionE",
      "type": "event"
    },
    {
      "anonymous": false,
      "inputs": [
        {
          "indexed": true,
          "name": "from",
          "type": "address"
        },
        {
          "indexed": true,
          "name": "to",
          "type": "address"
        },
        {
          "indexed": true,
          "name": "tokenId",
          "type": "uint256"
        }
      ],
      "name": "Transfer",
      "type": "event"
    },
    {
      "anonymous": false,
      "inputs": [
        {
          "indexed": true,
          "name": "owner",
          "type": "address"
        },
        {
          "indexed": true,
          "name": "approved",
          "type": "address"
        },
        {
          "indexed": true,
          "name": "tokenId",
          "type": "uint256"
        }
      ],
      "name": "Approval",
      "type": "event"
    },
    {
      "anonymous": false,
      "inputs": [
        {
          "indexed": true,
          "name": "owner",
          "type": "address"
        },
        {
          "indexed": true,
          "name": "operator",
          "type": "address"
        },
        {
          "indexed": false,
          "name": "approved",
          "type": "bool"
        }
      ],
      "name": "ApprovalForAll",
      "type": "event"
    },
    {
      "anonymous": false,
      "inputs": [
        {
          "indexed": false,
          "name": "_owner",
          "type": "address"
        }
      ],
      "name": "Paused",
      "type": "event"
    },
    {
      "anonymous": false,
      "inputs": [
        {
          "indexed": false,
          "name": "_owner",
          "type": "address"
        }
      ],
      "name": "Unpaused",
      "type": "event"
    },
    {
      "anonymous": false,
      "inputs": [
        {
          "indexed": false,
          "name": "newOwner",
          "type": "address"
        }
      ],
      "name": "Ownership",
      "type": "event"
    },
    {
      "constant": true,
      "inputs": [],
      "name": "getSolutionLength",
      "outputs": [
        {
          "name": "",
          "type": "uint256"
        }
      ],
      "payable": false,
      "stateMutability": "view",
      "type": "function"
    },
    {
      "constant": false,
      "inputs": [
        {
          "name": "to",
          "type": "address"
        },
        {
          "name": "tokenId",
          "type": "uint256"
        },
        {
          "name": "a",
          "type": "uint256[2]"
        },
        {
          "name": "b",
          "type": "uint256[2][2]"
        },
        {
          "name": "c",
          "type": "uint256[2]"
        },
        {
          "name": "inputs",
          "type": "uint256[2]"
        }
      ],
      "name": "addSolution",
      "outputs": [],
      "payable": false,
      "stateMutability": "nonpayable",
      "type": "function"
    },
    {
      "constant": false,
      "inputs": [
        {
          "name": "to",
          "type": "address"
        },
        {
          "name": "tokenId",
          "type": "uint256"
        },
        {
          "name": "a",
          "type": "uint256[2]"
        },
        {
          "name": "b",
          "type": "uint256[2][2]"
        },
        {
          "name": "c",
          "type": "uint256[2]"
        },
        {
          "name": "inputs",
          "type": "uint256[2]"
        }
      ],
      "name": "VerifyAndMint",
      "outputs": [
        {
          "name": "result",
          "type": "bool"
        }
      ],
      "payable": false,
      "stateMutability": "nonpayable",
      "type": "function"
    }
  ],
  "bytecode": "0x60806040523480156200001157600080fd5b5060405160208062003f0a833981018060405262000033919081019062000419565b6040518060400160405280601581526020017f4d6169736f6e20647520507579206475205361707400000000000000000000008152506040518060400160405280600381526020017f50445300000000000000000000000000000000000000000000000000000000008152506040518060600160405280603f815260200162003ecb603f9139336000806101000a81548173ffffffffffffffffffffffffffffffffffffffff021916908373ffffffffffffffffffffffffffffffffffffffff1602179055506200010b60006200020160201b60201c565b620001236301ffc9a760e01b620002b260201b60201c565b6200013b6380ac58cd60e01b620002b260201b60201c565b6200015363780e9d6360e01b620002b260201b60201c565b82600f90805190602001906200016b92919062000354565b5081601090805190602001906200018492919062000354565b5080601190805190602001906200019d92919062000354565b50620001b6635b5e139f60e01b620002b260201b60201c565b50505080601360006101000a81548173ffffffffffffffffffffffffffffffffffffffff021916908373ffffffffffffffffffffffffffffffffffffffff16021790555050620004ee565b6000809054906101000a900473ffffffffffffffffffffffffffffffffffffffff1673ffffffffffffffffffffffffffffffffffffffff163373ffffffffffffffffffffffffffffffffffffffff1614151562000295576040517f08c379a00000000000000000000000000000000000000000000000000000000081526004016200028c9062000487565b60405180910390fd5b80600060146101000a81548160ff02191690831515021790555050565b63ffffffff60e01b817bffffffffffffffffffffffffffffffffffffffffffffffffffffffff191614151515620002e857600080fd5b6001806000837bffffffffffffffffffffffffffffffffffffffffffffffffffffffff19167bffffffffffffffffffffffffffffffffffffffffffffffffffffffff1916815260200190815260200160002060006101000a81548160ff02191690831515021790555050565b828054600181600116156101000203166002900490600052602060002090601f016020900481019282601f106200039757805160ff1916838001178555620003c8565b82800160010185558215620003c8579182015b82811115620003c7578251825591602001919060010190620003aa565b5b509050620003d79190620003db565b5090565b6200040091905b80821115620003fc576000816000905550600101620003e2565b5090565b90565b6000620004118251620004ba565b905092915050565b6000602082840312156200042c57600080fd5b60006200043c8482850162000403565b91505092915050565b600062000454601d83620004a9565b91507f43616c6c6572206973206e6f7420636f6e7472616374206f776e65722e0000006000830152602082019050919050565b60006020820190508181036000830152620004a28162000445565b9050919050565b600082825260208201905092915050565b6000620004c782620004ce565b9050919050565b600073ffffffffffffffffffffffffffffffffffffffff82169050919050565b6139cd80620004fe6000396000f3fe608060405234801561001057600080fd5b506004361061018d5760003560e01c806340c10f19116100de578063a22cb46511610097578063c87b56dd11610071578063c87b56dd146104a4578063d547cfb7146104d4578063e985e9c5146104f2578063f2fde38b146105225761018d565b8063a22cb4651461044e578063b2bdfa7b1461046a578063b88d4fde146104885761018d565b806340c10f191461035457806342842e0e146103845780634f6ccce7146103a05780636352211e146103d057806370a082311461040057806395d89b41146104305761018d565b806318160ddd1161014b57806327dc297e1161012557806327dc297e146102d05780632f745c59146102ec57806338bbfa501461031c5780633eec14da146103385761018d565b806318160ddd146102665780631920477d1461028457806323b872dd146102b45761018d565b8062b80fda146101925780630159ead9146101b057806301ffc9a7146101cc57806306fdde03146101fc578063081812fc1461021a578063095ea7b31461024a575b600080fd5b61019a61053e565b6040516101a79190613635565b60405180910390f35b6101ca60048036036101c59190810190612ac6565b61054b565b005b6101e660048036036101e19190810190612beb565b6105f9565b6040516101f39190613458565b60405180910390f35b610204610661565b6040516102119190613473565b60405180910390f35b610234600480360361022f9190810190612c3d565b610703565b60405161024191906133aa565b60405180910390f35b610264600480360361025f91908101906129fe565b61078a565b005b61026e61093b565b60405161027b9190613635565b60405180910390f35b61029e60048036036102999190810190612a3a565b610948565b6040516102ab9190613458565b60405180910390f35b6102ce60048036036102c991908101906128f8565b610b3f565b005b6102ea60048036036102e59190810190612b18565b610b64565b005b610306600480360361030191908101906129fe565b610ba7565b6040516103139190613635565b60405180910390f35b61033660048036036103319190810190612b6c565b610c1e565b005b610352600480360361034d9190810190612a3a565b610c23565b005b61036e600480360361036991908101906129fe565b610ddf565b60405161037b9190613458565b60405180910390f35b61039e600480360361039991908101906128f8565b610e8f565b005b6103ba60048036036103b59190810190612c3d565b610eaf565b6040516103c79190613635565b60405180910390f35b6103ea60048036036103e59190810190612c3d565b610ee7565b6040516103f791906133aa565b60405180910390f35b61041a60048036036104159190810190612893565b610f24565b6040516104279190613635565b60405180910390f35b610438610f74565b6040516104459190613473565b60405180910390f35b610468600480360361046391908101906129c2565b611016565b005b61047261114e565b60405161047f91906133aa565b60405180910390f35b6104a2600480360361049d9190810190612947565b611173565b005b6104be60048036036104b99190810190612c3d565b61119b565b6040516104cb9190613473565b60405180910390f35b6104dc611264565b6040516104e99190613473565b60405180910390f35b61050c600480360361050791908101906128bc565b611306565b6040516105199190613458565b60405180910390f35b61053c60048036036105379190810190612893565b61139a565b005b6000601480549050905090565b6000809054906101000a900473ffffffffffffffffffffffffffffffffffffffff1673ffffffffffffffffffffffffffffffffffffffff163373ffffffffffffffffffffffffffffffffffffffff161415156105dc576040517f08c379a00000000000000000000000000000000000000000000000000000000081526004016105d3906134f5565b60405180910390fd5b80600060146101000a81548160ff02191690831515021790555050565b600060016000837bffffffffffffffffffffffffffffffffffffffffffffffffffffffff19167bffffffffffffffffffffffffffffffffffffffffffffffffffffffff1916815260200190815260200160002060009054906101000a900460ff169050919050565b6060600f8054600181600116156101000203166002900480601f0160208091040260200160405190810160405280929190818152602001828054600181600116156101000203166002900480156106f95780601f106106ce576101008083540402835291602001916106f9565b820191906000526020600020905b8154815290600101906020018083116106dc57829003601f168201915b5050505050905090565b600061070e82611517565b151561074f576040517f08c379a000000000000000000000000000000000000000000000000000000000815260040161074690613495565b60405180910390fd5b6003600083815260200190815260200160002060009054906101000a900473ffffffffffffffffffffffffffffffffffffffff169050919050565b600061079582610ee7565b90508273ffffffffffffffffffffffffffffffffffffffff168173ffffffffffffffffffffffffffffffffffffffff1614151515610808576040517f08c379a00000000000000000000000000000000000000000000000000000000081526004016107ff90613615565b60405180910390fd5b3373ffffffffffffffffffffffffffffffffffffffff168173ffffffffffffffffffffffffffffffffffffffff16148061084857506108478133611306565b5b1515610889576040517f08c379a000000000000000000000000000000000000000000000000000000000815260040161088090613595565b60405180910390fd5b826003600084815260200190815260200160002060006101000a81548173ffffffffffffffffffffffffffffffffffffffff021916908373ffffffffffffffffffffffffffffffffffffffff160217905550818173ffffffffffffffffffffffffffffffffffffffff168473ffffffffffffffffffffffffffffffffffffffff167f8c5be1e5ebec7d5bd14f71427d1e84f3dd0314c0f7b2291e5b200ac8c7c3b92560405160405180910390a4505050565b6000600880549050905090565b60008085858585604051602001610962949392919061335c565b604051602081830303815290604052805190602001209050600073ffffffffffffffffffffffffffffffffffffffff166015600083815260200190815260200160002060010160009054906101000a900473ffffffffffffffffffffffffffffffffffffffff1673ffffffffffffffffffffffffffffffffffffffff16141515610a21576040517f08c379a0000000000000000000000000000000000000000000000000000000008152600401610a1890613555565b60405180910390fd5b6000601360009054906101000a900473ffffffffffffffffffffffffffffffffffffffff1673ffffffffffffffffffffffffffffffffffffffff1663621e9ec0888888886040518563ffffffff1660e01b8152600401610a849493929190613411565b602060405180830381600087803b158015610a9e57600080fd5b505af1158015610ab2573d6000803e3d6000fd5b505050506040513d601f19601f82011682018060405250610ad69190810190612aef565b9050801515610b1a576040517f08c379a0000000000000000000000000000000000000000000000000000000008152600401610b11906135b5565b60405180910390fd5b610b28898989898989610c23565b610b328989610ddf565b5050509695505050505050565b610b493382611589565b1515610b5457600080fd5b610b5f83838361161e565b505050565b610ba3828260006040519080825280601f01601f191660200182016040528015610b9d5781602001600182028038833980820191505090505b50610c1e565b5050565b6000610bb283610f24565b82101515610bbf57600080fd5b600660008473ffffffffffffffffffffffffffffffffffffffff1673ffffffffffffffffffffffffffffffffffffffff16815260200190815260200160002082815481101515610c0b57fe5b9060005260206000200154905092915050565b505050565b600084848484604051602001610c3c949392919061335c565b60405160208183030381529060405280519060200120905060006014805490509050601460405180604001604052808381526020018a73ffffffffffffffffffffffffffffffffffffffff16815250908060018154018082558091505090600182039060005260206000209060020201600090919290919091506000820151816000015560208201518160010160006101000a81548173ffffffffffffffffffffffffffffffffffffffff021916908373ffffffffffffffffffffffffffffffffffffffff16021790555050505060405180604001604052808281526020018973ffffffffffffffffffffffffffffffffffffffff16815250601560008481526020019081526020016000206000820151816000015560208201518160010160006101000a81548173ffffffffffffffffffffffffffffffffffffffff021916908373ffffffffffffffffffffffffffffffffffffffff1602179055509050507f5673ab8baa0e6a4d4d962a7b6c31c1124d6a31dba8c809f00ed1805f60274d9e8189604051610dcd929190613650565b60405180910390a15050505050505050565b60008060009054906101000a900473ffffffffffffffffffffffffffffffffffffffff1673ffffffffffffffffffffffffffffffffffffffff163373ffffffffffffffffffffffffffffffffffffffff16141515610e72576040517f08c379a0000000000000000000000000000000000000000000000000000000008152600401610e69906134f5565b60405180910390fd5b610e7c8383611642565b610e8582611663565b6001905092915050565b610eaa83838360405180602001604052806000815250611173565b505050565b6000610eb961093b565b82101515610ec657600080fd5b600882815481101515610ed557fe5b90600052602060002001549050919050565b60006002600083815260200190815260200160002060009054906101000a900473ffffffffffffffffffffffffffffffffffffffff169050919050565b6000610f6d600460008473ffffffffffffffffffffffffffffffffffffffff1673ffffffffffffffffffffffffffffffffffffffff168152602001908152602001600020611783565b9050919050565b606060108054600181600116156101000203166002900480601f01602080910402602001604051908101604052809291908181526020018280546001816001161561010002031660029004801561100c5780601f10610fe15761010080835404028352916020019161100c565b820191906000526020600020905b815481529060010190602001808311610fef57829003601f168201915b5050505050905090565b3373ffffffffffffffffffffffffffffffffffffffff168273ffffffffffffffffffffffffffffffffffffffff161415151561105157600080fd5b80600560003373ffffffffffffffffffffffffffffffffffffffff1673ffffffffffffffffffffffffffffffffffffffff16815260200190815260200160002060008473ffffffffffffffffffffffffffffffffffffffff1673ffffffffffffffffffffffffffffffffffffffff16815260200190815260200160002060006101000a81548160ff0219169083151502179055508173ffffffffffffffffffffffffffffffffffffffff163373ffffffffffffffffffffffffffffffffffffffff167f17307eab39ab6107e8899845ad3d59bd9653f200f220920489ca2b5937696c31836040516111429190613458565b60405180910390a35050565b6000809054906101000a900473ffffffffffffffffffffffffffffffffffffffff1681565b61117e848484610b3f565b61118a84848484611791565b151561119557600080fd5b50505050565b60606111a682611517565b15156111b157600080fd5b601260008381526020019081526020016000208054600181600116156101000203166002900480601f0160208091040260200160405190810160405280929190818152602001828054600181600116156101000203166002900480156112585780601f1061122d57610100808354040283529160200191611258565b820191906000526020600020905b81548152906001019060200180831161123b57829003601f168201915b50505050509050919050565b606060118054600181600116156101000203166002900480601f0160208091040260200160405190810160405280929190818152602001828054600181600116156101000203166002900480156112fc5780601f106112d1576101008083540402835291602001916112fc565b820191906000526020600020905b8154815290600101906020018083116112df57829003601f168201915b5050505050905090565b6000600560008473ffffffffffffffffffffffffffffffffffffffff1673ffffffffffffffffffffffffffffffffffffffff16815260200190815260200160002060008373ffffffffffffffffffffffffffffffffffffffff1673ffffffffffffffffffffffffffffffffffffffff16815260200190815260200160002060009054906101000a900460ff16905092915050565b6000809054906101000a900473ffffffffffffffffffffffffffffffffffffffff1673ffffffffffffffffffffffffffffffffffffffff163373ffffffffffffffffffffffffffffffffffffffff1614151561142b576040517f08c379a0000000000000000000000000000000000000000000000000000000008152600401611422906134f5565b60405180910390fd5b600073ffffffffffffffffffffffffffffffffffffffff168173ffffffffffffffffffffffffffffffffffffffff161415151561149d576040517f08c379a000000000000000000000000000000000000000000000000000000000815260040161149490613535565b60405180910390fd5b806000806101000a81548173ffffffffffffffffffffffffffffffffffffffff021916908373ffffffffffffffffffffffffffffffffffffffff1602179055507fed9f74f37a6a8c66ae78897700389a3423d55185fc2f3c37b17466f0418d1ed08160405161150c91906133aa565b60405180910390a150565b6000806002600084815260200190815260200160002060009054906101000a900473ffffffffffffffffffffffffffffffffffffffff169050600073ffffffffffffffffffffffffffffffffffffffff168173ffffffffffffffffffffffffffffffffffffffff161415915050919050565b60008061159583610ee7565b90508073ffffffffffffffffffffffffffffffffffffffff168473ffffffffffffffffffffffffffffffffffffffff16148061160457508373ffffffffffffffffffffffffffffffffffffffff166115ec84610703565b73ffffffffffffffffffffffffffffffffffffffff16145b8061161557506116148185611306565b5b91505092915050565b6116298383836118aa565b6116338382611b1f565b61163d8282611cc3565b505050565b61164c8282611d8a565b6116568282611cc3565b61165f81611f53565b5050565b61166c81611517565b15156116ad576040517f08c379a00000000000000000000000000000000000000000000000000000000081526004016116a4906135d5565b60405180910390fd5b61175960118054600181600116156101000203166002900480601f0160208091040260200160405190810160405280929190818152602001828054600181600116156101000203166002900480156117465780601f1061171b57610100808354040283529160200191611746565b820191906000526020600020905b81548152906001019060200180831161172957829003601f168201915b505050505061175483611f9f565b6120d9565b60126000838152602001908152602001600020908051906020019061177f929190612528565b5050565b600081600001549050919050565b60006117b28473ffffffffffffffffffffffffffffffffffffffff1661211d565b15156117c157600190506118a2565b60008473ffffffffffffffffffffffffffffffffffffffff1663150b7a02338887876040518563ffffffff1660e01b815260040161180294939291906133c5565b602060405180830381600087803b15801561181c57600080fd5b505af1158015611830573d6000803e3d6000fd5b505050506040513d601f19601f820116820180604052506118549190810190612c14565b905063150b7a0260e01b7bffffffffffffffffffffffffffffffffffffffffffffffffffffffff1916817bffffffffffffffffffffffffffffffffffffffffffffffffffffffff1916149150505b949350505050565b6118b381610ee7565b73ffffffffffffffffffffffffffffffffffffffff168373ffffffffffffffffffffffffffffffffffffffff16141515611922576040517f08c379a000000000000000000000000000000000000000000000000000000000815260040161191990613515565b60405180910390fd5b600073ffffffffffffffffffffffffffffffffffffffff168273ffffffffffffffffffffffffffffffffffffffff1614151515611994576040517f08c379a000000000000000000000000000000000000000000000000000000000815260040161198b906134d5565b60405180910390fd5b61199e3382611589565b15156119df576040517f08c379a00000000000000000000000000000000000000000000000000000000081526004016119d6906134b5565b60405180910390fd5b611a26600460008573ffffffffffffffffffffffffffffffffffffffff1673ffffffffffffffffffffffffffffffffffffffff168152602001908152602001600020612168565b611a6d600460008473ffffffffffffffffffffffffffffffffffffffff1673ffffffffffffffffffffffffffffffffffffffff16815260200190815260200160002061218b565b816002600083815260200190815260200160002060006101000a81548173ffffffffffffffffffffffffffffffffffffffff021916908373ffffffffffffffffffffffffffffffffffffffff160217905550808273ffffffffffffffffffffffffffffffffffffffff168473ffffffffffffffffffffffffffffffffffffffff167fddf252ad1be2c89b69c2b068fc378daa952ba7f163c4a11628f55a4df523b3ef60405160405180910390a4505050565b6000611b776001600660008673ffffffffffffffffffffffffffffffffffffffff1673ffffffffffffffffffffffffffffffffffffffff168152602001908152602001600020805490506121a190919063ffffffff16565b90506000600760008481526020019081526020016000205490508181141515611c6a576000600660008673ffffffffffffffffffffffffffffffffffffffff1673ffffffffffffffffffffffffffffffffffffffff16815260200190815260200160002083815481101515611be857fe5b9060005260206000200154905080600660008773ffffffffffffffffffffffffffffffffffffffff1673ffffffffffffffffffffffffffffffffffffffff16815260200190815260200160002083815481101515611c4257fe5b9060005260206000200181905550816007600083815260200190815260200160002081905550505b600660008573ffffffffffffffffffffffffffffffffffffffff1673ffffffffffffffffffffffffffffffffffffffff168152602001908152602001600020805480919060019003611cbc91906125a8565b5050505050565b600660008373ffffffffffffffffffffffffffffffffffffffff1673ffffffffffffffffffffffffffffffffffffffff168152602001908152602001600020805490506007600083815260200190815260200160002081905550600660008373ffffffffffffffffffffffffffffffffffffffff1673ffffffffffffffffffffffffffffffffffffffff1681526020019081526020016000208190806001815401808255809150509060018203906000526020600020016000909192909190915055505050565b6000611d9582610ee7565b905060001515611da483611517565b1515141515611de8576040517f08c379a0000000000000000000000000000000000000000000000000000000008152600401611ddf90613575565b60405180910390fd5b600073ffffffffffffffffffffffffffffffffffffffff168373ffffffffffffffffffffffffffffffffffffffff1614151515611e5a576040517f08c379a0000000000000000000000000000000000000000000000000000000008152600401611e51906135f5565b60405180910390fd5b826002600084815260200190815260200160002060006101000a81548173ffffffffffffffffffffffffffffffffffffffff021916908373ffffffffffffffffffffffffffffffffffffffff160217905550611ef3600460008573ffffffffffffffffffffffffffffffffffffffff1673ffffffffffffffffffffffffffffffffffffffff16815260200190815260200160002061218b565b818373ffffffffffffffffffffffffffffffffffffffff168273ffffffffffffffffffffffffffffffffffffffff167fddf252ad1be2c89b69c2b068fc378daa952ba7f163c4a11628f55a4df523b3ef60405160405180910390a4505050565b6008805490506009600083815260200190815260200160002081905550600881908060018154018082558091505090600182039060005260206000200160009091929091909150555050565b60606000821415611fe7576040518060400160405280600181526020017f300000000000000000000000000000000000000000000000000000000000000081525090506120d4565b600082905060005b600082141515612015578080600101915050600a8281151561200d57fe5b049150611fef565b6060816040519080825280601f01601f19166020018201604052801561204a5781602001600182028038833980820191505090505b50905060006001830390505b6000861415156120cc57600a8681151561206c57fe5b0660300160f81b82828060019003935081518110151561208857fe5b9060200101907effffffffffffffffffffffffffffffffffffffffffffffffffffffffffffff1916908160001a905350600a868115156120c457fe5b049550612056565b819450505050505b919050565b606061211583836040518060200160405280600081525060405180602001604052806000815250604051806020016040528060008152506121eb565b905092915050565b60008060007fc5d2460186f7233c927e7db2dcc703c0e500b653ca82273b7bfad8045d85a47060001b9050833f915080821415801561215f57506000801b8214155b92505050919050565b612180600182600001546121a190919063ffffffff16565b816000018190555050565b6001816000016000828254019250508190555050565b60006121e383836040518060400160405280601e81526020017f536166654d6174683a207375627472616374696f6e206f766572666c6f7700008152506124cb565b905092915050565b6060808690506060869050606086905060608690506060869050606081518351855187518951010101016040519080825280601f01601f1916602001820160405280156122475781602001600182028038833980820191505090505b509050606081905060008090506000809050600090505b88518110156122d257888181518110151561227557fe5b90602001015160f81c60f81b838380600101945081518110151561229557fe5b9060200101907effffffffffffffffffffffffffffffffffffffffffffffffffffffffffffff1916908160001a905350808060010191505061225e565b600090505b875181101561234b5787818151811015156122ee57fe5b90602001015160f81c60f81b838380600101945081518110151561230e57fe5b9060200101907effffffffffffffffffffffffffffffffffffffffffffffffffffffffffffff1916908160001a90535080806001019150506122d7565b600090505b86518110156123c457868181518110151561236757fe5b90602001015160f81c60f81b838380600101945081518110151561238757fe5b9060200101907effffffffffffffffffffffffffffffffffffffffffffffffffffffffffffff1916908160001a9053508080600101915050612350565b600090505b855181101561243d5785818151811015156123e057fe5b90602001015160f81c60f81b838380600101945081518110151561240057fe5b9060200101907effffffffffffffffffffffffffffffffffffffffffffffffffffffffffffff1916908160001a90535080806001019150506123c9565b600090505b84518110156124b657848181518110151561245957fe5b90602001015160f81c60f81b838380600101945081518110151561247957fe5b9060200101907effffffffffffffffffffffffffffffffffffffffffffffffffffffffffffff1916908160001a9053508080600101915050612442565b82995050505050505050505095945050505050565b60008383111582901515612515576040517f08c379a000000000000000000000000000000000000000000000000000000000815260040161250c9190613473565b60405180910390fd5b5060008385039050809150509392505050565b828054600181600116156101000203166002900490600052602060002090601f016020900481019282601f1061256957805160ff1916838001178555612597565b82800160010185558215612597579182015b8281111561259657825182559160200191906001019061257b565b5b5090506125a491906125d4565b5090565b8154818355818111156125cf578183600052602060002091820191016125ce91906125d4565b5b505050565b6125f691905b808211156125f25760008160009055506001016125da565b5090565b90565b6000612605823561388c565b905092915050565b600082601f830112151561262057600080fd5b600261263361262e826136a6565b613679565b9150818385604084028201111561264957600080fd5b60005b83811015612679578161265f8882612683565b84526020840193506040830192505060018101905061264c565b5050505092915050565b600082601f830112151561269657600080fd5b60026126a96126a4826136c8565b613679565b915081838560208402820111156126bf57600080fd5b60005b838110156126ef57816126d5888261287f565b8452602084019350602083019250506001810190506126c2565b5050505092915050565b600082601f830112151561270c57600080fd5b600261271f61271a826136ea565b613679565b9150818385602084028201111561273557600080fd5b60005b83811015612765578161274b888261287f565b845260208401935060208301925050600181019050612738565b5050505092915050565b600061277b823561389e565b905092915050565b600061278f825161389e565b905092915050565b60006127a382356138aa565b905092915050565b60006127b782356138b4565b905092915050565b60006127cb82516138b4565b905092915050565b600082601f83011215156127e657600080fd5b81356127f96127f48261370c565b613679565b9150808252602083016020830185838301111561281557600080fd5b612820838284613940565b50505092915050565b600082601f830112151561283c57600080fd5b813561284f61284a82613738565b613679565b9150808252602083016020830185838301111561286b57600080fd5b612876838284613940565b50505092915050565b600061288b8235613900565b905092915050565b6000602082840312156128a557600080fd5b60006128b3848285016125f9565b91505092915050565b600080604083850312156128cf57600080fd5b60006128dd858286016125f9565b92505060206128ee858286016125f9565b9150509250929050565b60008060006060848603121561290d57600080fd5b600061291b868287016125f9565b935050602061292c868287016125f9565b925050604061293d8682870161287f565b9150509250925092565b6000806000806080858703121561295d57600080fd5b600061296b878288016125f9565b945050602061297c878288016125f9565b935050604061298d8782880161287f565b925050606085013567ffffffffffffffff8111156129aa57600080fd5b6129b6878288016127d3565b91505092959194509250565b600080604083850312156129d557600080fd5b60006129e3858286016125f9565b92505060206129f48582860161276f565b9150509250929050565b60008060408385031215612a1157600080fd5b6000612a1f858286016125f9565b9250506020612a308582860161287f565b9150509250929050565b6000806000806000806101808789031215612a5457600080fd5b6000612a6289828a016125f9565b9650506020612a7389828a0161287f565b9550506040612a8489828a016126f9565b9450506080612a9589828a0161260d565b935050610100612aa789828a016126f9565b925050610140612ab989828a016126f9565b9150509295509295509295565b600060208284031215612ad857600080fd5b6000612ae68482850161276f565b91505092915050565b600060208284031215612b0157600080fd5b6000612b0f84828501612783565b91505092915050565b60008060408385031215612b2b57600080fd5b6000612b3985828601612797565b925050602083013567ffffffffffffffff811115612b5657600080fd5b612b6285828601612829565b9150509250929050565b600080600060608486031215612b8157600080fd5b6000612b8f86828701612797565b935050602084013567ffffffffffffffff811115612bac57600080fd5b612bb886828701612829565b925050604084013567ffffffffffffffff811115612bd557600080fd5b612be1868287016127d3565b9150509250925092565b600060208284031215612bfd57600080fd5b6000612c0b848285016127ab565b91505092915050565b600060208284031215612c2657600080fd5b6000612c34848285016127bf565b91505092915050565b600060208284031215612c4f57600080fd5b6000612c5d8482850161287f565b91505092915050565b6000612c728383612e30565b60408301905092915050565b6000612c8a8383612e83565b60408301905092915050565b6000612ca2838361332f565b60208301905092915050565b6000612cba838361334d565b60208301905092915050565b612ccf8161390a565b82525050565b612cde81613844565b82525050565b612ced81613782565b612cf781846137e0565b9250612d0282613764565b60005b82811015612d3057612d18858351612c66565b9450612d23826137b9565b9150600181019050612d05565b5050505050565b612d4081613782565b612d4a81846137eb565b9250612d5582613764565b60005b82811015612d8357612d6b858351612c7e565b9450612d76826137b9565b9150600181019050612d58565b5050505050565b612d9381613798565b612d9d8184613801565b9250612da882613778565b60005b82811015612dd657612dbe858351612c96565b9450612dc9826137d3565b9150600181019050612dab565b5050505050565b612de681613798565b612df08184613817565b9250612dfb82613778565b60005b82811015612e2957612e11858351612cae565b9450612e1c826137d3565b9150600181019050612dfe565b5050505050565b612e398161378d565b612e4381846137f6565b9250612e4e8261376e565b60005b82811015612e7c57612e64858351612c96565b9450612e6f826137c6565b9150600181019050612e51565b5050505050565b612e8c8161378d565b612e96818461380c565b9250612ea18261376e565b60005b82811015612ecf57612eb7858351612cae565b9450612ec2826137c6565b9150600181019050612ea4565b5050505050565b612edf81613856565b82525050565b6000612ef0826137a3565b612efa8185613822565b9350612f0a81856020860161394f565b612f1381613982565b840191505092915050565b6000612f29826137ae565b612f338185613833565b9350612f4381856020860161394f565b612f4c81613982565b840191505092915050565b6000612f64601283613833565b91507f546f6b656e206e6f7420617070726f76656400000000000000000000000000006000830152602082019050919050565b6000612fa4603083613833565b91507f53656e646572206973206e6f7420617070726f76656420746f206d616b65207460008301527f686174207472616e73616374696f6e2e000000000000000000000000000000006020830152604082019050919050565b600061300a601983613833565b91507f496e76616c696420726563656976657220616464726573732e000000000000006000830152602082019050919050565b600061304a601d83613833565b91507f43616c6c6572206973206e6f7420636f6e7472616374206f776e65722e0000006000830152602082019050919050565b600061308a602783613833565b91507f66726f6d20616464726573732069736e2774206f776e6572206f66207468697360008301527f20746f6b656e2e000000000000000000000000000000000000000000000000006020830152604082019050919050565b60006130f0602983613833565b91507f416464726573732063616e6e6f74206265206e756c6c20666f7220746865206e60008301527f6577206f776e65722e00000000000000000000000000000000000000000000006020830152604082019050919050565b6000613156601d83613833565b91507f536f6c7574696f6e20616c72656164792075736564206265666f72652e0000006000830152602082019050919050565b6000613196601783613833565b91507f546f6b656e496420616c7265616479206578697374732e0000000000000000006000830152602082019050919050565b60006131d6602983613833565b91507f4f70657261746f72206d75737420626520617070726f76656420666f7220746860008301527f6973206f776e65722e00000000000000000000000000000000000000000000006020830152604082019050919050565b600061323c601683613833565b91507f536f6c7574696f6e206e6f742076657269666965642e000000000000000000006000830152602082019050919050565b600061327c601483613833565b91507f546f6b656e20646f65736e27742065786973742e0000000000000000000000006000830152602082019050919050565b60006132bc601383613833565b91507f4164647265737320697320696e76616c69642e000000000000000000000000006000830152602082019050919050565b60006132fc601e83613833565b91507f43616e6e6f74207472616e7366657220746f2073616d65206f776e65722e00006000830152602082019050919050565b61333881613882565b82525050565b61334781613882565b82525050565b61335681613882565b82525050565b60006133688287612ddd565b6040820191506133788286612d37565b6080820191506133888285612ddd565b6040820191506133988284612ddd565b60408201915081905095945050505050565b60006020820190506133bf6000830184612cd5565b92915050565b60006080820190506133da6000830187612cc6565b6133e76020830186612cd5565b6133f4604083018561333e565b81810360608301526134068184612ee5565b905095945050505050565b6000610140820190506134276000830187612d8a565b6134346040830186612ce4565b61344160c0830185612d8a565b61344f610100830184612d8a565b95945050505050565b600060208201905061346d6000830184612ed6565b92915050565b6000602082019050818103600083015261348d8184612f1e565b905092915050565b600060208201905081810360008301526134ae81612f57565b9050919050565b600060208201905081810360008301526134ce81612f97565b9050919050565b600060208201905081810360008301526134ee81612ffd565b9050919050565b6000602082019050818103600083015261350e8161303d565b9050919050565b6000602082019050818103600083015261352e8161307d565b9050919050565b6000602082019050818103600083015261354e816130e3565b9050919050565b6000602082019050818103600083015261356e81613149565b9050919050565b6000602082019050818103600083015261358e81613189565b9050919050565b600060208201905081810360008301526135ae816131c9565b9050919050565b600060208201905081810360008301526135ce8161322f565b9050919050565b600060208201905081810360008301526135ee8161326f565b9050919050565b6000602082019050818103600083015261360e816132af565b9050919050565b6000602082019050818103600083015261362e816132ef565b9050919050565b600060208201905061364a600083018461333e565b92915050565b6000604082019050613665600083018561333e565b6136726020830184612cd5565b9392505050565b6000604051905081810181811067ffffffffffffffff8211171561369c57600080fd5b8060405250919050565b600067ffffffffffffffff8211156136bd57600080fd5b602082029050919050565b600067ffffffffffffffff8211156136df57600080fd5b602082029050919050565b600067ffffffffffffffff82111561370157600080fd5b602082029050919050565b600067ffffffffffffffff82111561372357600080fd5b601f19601f8301169050602081019050919050565b600067ffffffffffffffff82111561374f57600080fd5b601f19601f8301169050602081019050919050565b6000819050919050565b6000819050919050565b6000819050919050565b600060029050919050565b600060029050919050565b600060029050919050565b600081519050919050565b600081519050919050565b6000602082019050919050565b6000602082019050919050565b6000602082019050919050565b600081905092915050565b600081905092915050565b600081905092915050565b600081905092915050565b600081905092915050565b600081905092915050565b600082825260208201905092915050565b600082825260208201905092915050565b600061384f82613862565b9050919050565b60008115159050919050565b600073ffffffffffffffffffffffffffffffffffffffff82169050919050565b6000819050919050565b6000613897826138e0565b9050919050565b60008115159050919050565b6000819050919050565b60007fffffffff0000000000000000000000000000000000000000000000000000000082169050919050565b600073ffffffffffffffffffffffffffffffffffffffff82169050919050565b6000819050919050565b60006139158261391c565b9050919050565b60006139278261392e565b9050919050565b600061393982613862565b9050919050565b82818337600083830152505050565b60005b8381101561396d578082015181840152602081019050613952565b8381111561397c576000848401525b50505050565b6000601f19601f830116905091905056fea265627a7a7230582017dba267f00d1c066a129181d2552ba3493649b32379a80e3ec917fef30bfb486c6578706572696d656e74616cf5003768747470733a2f2f73332d75732d776573742d322e616d617a6f6e6177732e636f6d2f756461636974792d626c6f636b636861696e2f63617073746f6e652f",
  "source": "pragma solidity >=0.4.21 <0.6.0;\r\npragma experimental ABIEncoderV2;\r\nimport './ERC721Mintable.sol';\r\nimport './verifier.sol';\r\n\r\n// REAL ESTATE TOKEN NAME: PDS_ERC721Token\r\n\r\n// TODO define a contract call to the zokrates generated solidity contract <Verifier> or <renamedVerifier>\r\ncontract verifier{\r\n}\r\n\r\n// TODO define another contract named SolnSquareVerifier that inherits from your ERC721Mintable class\r\ncontract SolnSquareVerifier is PDS_ERC721Token {\r\n    \r\n    Verifier private zokrateVerifier;\r\n\r\n    // TODO define a solutions struct that can hold an index & an address\r\n    struct Solution {\r\n        uint index;\r\n        address soluAddress;\r\n    }\r\n\r\n    constructor(address verifierAddress) public {\r\n        zokrateVerifier = Verifier(verifierAddress);\r\n    }\r\n\r\n    function getSolutionLength() public view returns(uint256) {\r\n        return solutionArray.length;\r\n    }\r\n\r\n    // TODO define an array of the above struct\r\n    Solution[] private solutionArray;\r\n\r\n    // TODO define a mapping to store unique solutions submitted\r\n    mapping(bytes32 => Solution) private solutionMapping;\r\n\r\n    // TODO Create an event to emit when a solution is added\r\n    event SolutionE(uint256 index, address holder);\r\n\r\n    // TODO Create a function to add the solutions to the array and emit the event\r\n    function addSolution(address to, uint256 tokenId, uint[2] memory a, uint[2][2] memory b, uint[2] memory c, uint[2] memory inputs) public {\r\n        // we can hash the results of the inputs\r\n        bytes32 hash_value = keccak256(abi.encodePacked(a,b,c, inputs));\r\n\r\n        // we push value in the array\r\n        uint256 solutionNumber = solutionArray.length;\r\n        solutionArray.push(Solution(solutionNumber, to));\r\n\r\n        // we store in the mapping of the last position\r\n        solutionMapping[hash_value] = Solution(solutionNumber, to);\r\n        emit SolutionE(solutionNumber, to);\r\n    }\r\n\r\n    // TODO Create a function to mint new NFT only after the solution has been verified\r\n    //  - make sure the solution is unique (has not been used before)\r\n    //  - make sure you handle metadata as well as tokenSuplly\r\n    function VerifyAndMint(address to, uint256 tokenId, uint[2] memory a, uint[2][2] memory b, uint[2] memory c, uint[2] memory inputs) public returns (bool result) {\r\n\r\n        // has the proof values\r\n        bytes32 hash_value = keccak256(abi.encodePacked(a,b,c,inputs));\r\n\r\n        // make sure we have not the hash value in mapping before\r\n        require(solutionMapping[hash_value].soluAddress == address(0), \"Solution already used before.\");\r\n\r\n        // verify transaction\r\n        bool verified = zokrateVerifier.verifyTx(a, b, c, inputs);\r\n\r\n        // add solution\r\n        require(verified, \"Solution not verified.\"); \r\n        addSolution(to, tokenId, a, b, c, inputs);\r\n\r\n        super.mint(to, tokenId);\r\n    }\r\n}\r\n\r\n\r\n\r\n\r\n\r\n\r\n\r\n\r\n\r\n\r\n\r\n\r\n\r\n\r\n\r\n\r\n\r\n\r\n\r\n\r\n\r\n\r\n\r\n\r\n\r\n\r\n\r\n\r\n\r\n\r\n\r\n\r\n\r\n\r\n\r\n\r\n\r\n\r\n\r\n\r\n\r\n\r\n\r\n",
  "sourcePath": "C:\\Users\\Baptiste\\Documents\\udacity\\blockchain_project_5\\Blockchain-Capstone\\eth-contracts\\contracts\\SolnSquareVerifier.sol",
  "compiler": {
    "name": "solc",
    "version": "0.5.5+commit.47a71e8f.Emscripten.clang"
  },
  "schemaVersion": "3.4.3",
  "updatedAt": "2021-12-17T14:47:05.899Z",
  "networkType": "ethereum",
  "devdoc": {
    "methods": {
      "isApprovedForAll(address,address)": {
        "details": "Tells whether an operator is approved by a given owner\r",
        "params": {
          "operator": "operator address which you want to query the approval of\r",
          "owner": "owner address which you want to query the approval of\r"
        },
        "return": "bool whether the given operator is approved by the given owner\r"
      },
      "setApprovalForAll(address,bool)": {
        "details": "Sets or unsets the approval of a given operator\r An operator is allowed to transfer all tokens of the sender on their behalf\r",
        "params": {
          "approved": "representing the status of the approval to be set\r",
          "to": "operator address to set the approval\r"
        }
      },
      "supportsInterface(bytes4)": {
        "details": "implement supportsInterface(bytes4) using a lookup table\r"
      },
      "tokenByIndex(uint256)": {
        "details": "Gets the token ID at a given index of all the tokens in this contract\r Reverts if the index is greater or equal to the total number of tokens\r",
        "params": {
          "index": "uint256 representing the index to be accessed of the tokens list\r"
        },
        "return": "uint256 token ID at the given index of the tokens list\r"
      },
      "tokenOfOwnerByIndex(address,uint256)": {
        "details": "Gets the token ID at a given index of the tokens list of the requested owner\r",
        "params": {
          "index": "uint256 representing the index to be accessed of the requested tokens list\r",
          "owner": "address owning the tokens list to be accessed\r"
        },
        "return": "uint256 token ID at the given index of the tokens list owned by the requested address\r"
      },
      "totalSupply()": {
        "details": "Gets the total amount of tokens stored by the contract\r",
        "return": "uint256 representing the total amount of tokens\r"
      }
    }
  },
  "userdoc": {
    "methods": {}
  }
}